{
  "contractName": "AddressImpl",
  "abi": [
    {
      "constant": true,
      "inputs": [
        {
          "name": "account",
          "type": "address"
        }
      ],
      "name": "isContract",
      "outputs": [
        {
          "name": "",
          "type": "bool"
        }
      ],
      "payable": false,
      "stateMutability": "view",
      "type": "function"
    }
  ],
  "bytecode": "0x608060405234801561001057600080fd5b5060eb8061001f6000396000f300608060405260043610603f576000357c0100000000000000000000000000000000000000000000000000000000900463ffffffff16806316279055146044575b600080fd5b348015604f57600080fd5b506082600480360381019080803573ffffffffffffffffffffffffffffffffffffffff169060200190929190505050609c565b604051808215151515815260200191505060405180910390f35b600060a58260ac565b9050919050565b600080823b9050600081119150509190505600a165627a7a723058202ddd93c3997f204ed76d85d01d0492615fb6ea28b89f1e826901d71f3e977ffa0029",
  "source": "pragma solidity ^0.4.24;\n\nimport \"../utils/Address.sol\";\n\ncontract AddressImpl {\n  function isContract(address account)\n    external\n    view\n    returns (bool)\n  {\n    return Address.isContract(account); \n  }\n  \n}\n",
  "sourcePath": "/home/jonah/miscCode/SimpleStablecoin/contracts/openzeppelin-solidity/contracts/mocks/AddressImpl.sol",
  "compiler": {
    "name": "solc",
    "version": "0.4.24+commit.e67f0147.Emscripten.clang"
  },
  "schemaVersion": "2.0.1",
  "updatedAt": "2018-10-24T22:56:24.438Z"
}