{
  "contractName": "CappedCrowdsaleImpl",
  "abi": [
    {
      "constant": true,
      "inputs": [],
      "name": "rate",
      "outputs": [
        {
          "name": "",
          "type": "uint256"
        }
      ],
      "payable": false,
      "stateMutability": "view",
      "type": "function"
    },
    {
      "constant": true,
      "inputs": [],
      "name": "cap",
      "outputs": [
        {
          "name": "",
          "type": "uint256"
        }
      ],
      "payable": false,
      "stateMutability": "view",
      "type": "function"
    },
    {
      "constant": true,
      "inputs": [],
      "name": "weiRaised",
      "outputs": [
        {
          "name": "",
          "type": "uint256"
        }
      ],
      "payable": false,
      "stateMutability": "view",
      "type": "function"
    },
    {
      "constant": true,
      "inputs": [],
      "name": "capReached",
      "outputs": [
        {
          "name": "",
          "type": "bool"
        }
      ],
      "payable": false,
      "stateMutability": "view",
      "type": "function"
    },
    {
      "constant": true,
      "inputs": [],
      "name": "wallet",
      "outputs": [
        {
          "name": "",
          "type": "address"
        }
      ],
      "payable": false,
      "stateMutability": "view",
      "type": "function"
    },
    {
      "constant": false,
      "inputs": [
        {
          "name": "beneficiary",
          "type": "address"
        }
      ],
      "name": "buyTokens",
      "outputs": [],
      "payable": true,
      "stateMutability": "payable",
      "type": "function"
    },
    {
      "constant": true,
      "inputs": [],
      "name": "token",
      "outputs": [
        {
          "name": "",
          "type": "address"
        }
      ],
      "payable": false,
      "stateMutability": "view",
      "type": "function"
    },
    {
      "inputs": [
        {
          "name": "rate",
          "type": "uint256"
        },
        {
          "name": "wallet",
          "type": "address"
        },
        {
          "name": "token",
          "type": "address"
        },
        {
          "name": "cap",
          "type": "uint256"
        }
      ],
      "payable": false,
      "stateMutability": "nonpayable",
      "type": "constructor"
    },
    {
      "payable": true,
      "stateMutability": "payable",
      "type": "fallback"
    },
    {
      "anonymous": false,
      "inputs": [
        {
          "indexed": true,
          "name": "purchaser",
          "type": "address"
        },
        {
          "indexed": true,
          "name": "beneficiary",
          "type": "address"
        },
        {
          "indexed": false,
          "name": "value",
          "type": "uint256"
        },
        {
          "indexed": false,
          "name": "amount",
          "type": "uint256"
        }
      ],
      "name": "TokensPurchased",
      "type": "event"
    }
  ],
  "bytecode": "0x608060405234801561001057600080fd5b506040516080806108298339810180604052810190808051906020019092919080519060200190929190805190602001909291908051906020019092919050505080848484600160008190555060008311151561006c57600080fd5b600073ffffffffffffffffffffffffffffffffffffffff168273ffffffffffffffffffffffffffffffffffffffff16141515156100a857600080fd5b600073ffffffffffffffffffffffffffffffffffffffff168173ffffffffffffffffffffffffffffffffffffffff16141515156100e457600080fd5b8260038190555081600260006101000a81548173ffffffffffffffffffffffffffffffffffffffff021916908373ffffffffffffffffffffffffffffffffffffffff16021790555080600160006101000a81548173ffffffffffffffffffffffffffffffffffffffff021916908373ffffffffffffffffffffffffffffffffffffffff16021790555050505060008111151561017f57600080fd5b80600581905550505050505061068f8061019a6000396000f300608060405260043610610083576000357c0100000000000000000000000000000000000000000000000000000000900463ffffffff1680632c4e722e1461008e578063355274ea146100b95780634042b66f146100e45780634f9359451461010f578063521eb2731461013e578063ec8ac4d814610195578063fc0c546a146101cb575b61008c33610222565b005b34801561009a57600080fd5b506100a3610318565b6040518082815260200191505060405180910390f35b3480156100c557600080fd5b506100ce610322565b6040518082815260200191505060405180910390f35b3480156100f057600080fd5b506100f961032c565b6040518082815260200191505060405180910390f35b34801561011b57600080fd5b50610124610336565b604051808215151515815260200191505060405180910390f35b34801561014a57600080fd5b5061015361034a565b604051808273ffffffffffffffffffffffffffffffffffffffff1673ffffffffffffffffffffffffffffffffffffffff16815260200191505060405180910390f35b6101c9600480360381019080803573ffffffffffffffffffffffffffffffffffffffff169060200190929190505050610222565b005b3480156101d757600080fd5b506101e0610374565b604051808273ffffffffffffffffffffffffffffffffffffffff1673ffffffffffffffffffffffffffffffffffffffff16815260200191505060405180910390f35b6000806000600160008082825401925050819055506000549050349250610249848461039e565b610252836103d6565b9150610269836004546103f490919063ffffffff16565b6004819055506102798483610415565b8373ffffffffffffffffffffffffffffffffffffffff163373ffffffffffffffffffffffffffffffffffffffff167f6faf93231a456e552dbc9961f58d9713ee4f2e69d15f1975b050ef0911053a7b8585604051808381526020018281526020019250505060405180910390a36102f08484610423565b6102f8610427565b6103028484610492565b6000548114151561031257600080fd5b50505050565b6000600354905090565b6000600554905090565b6000600454905090565b600060055461034361032c565b1015905090565b6000600260009054906101000a900473ffffffffffffffffffffffffffffffffffffffff16905090565b6000600160009054906101000a900473ffffffffffffffffffffffffffffffffffffffff16905090565b6103a88282610496565b6005546103c5826103b761032c565b6103f490919063ffffffff16565b111515156103d257600080fd5b5050565b60006103ed600354836104e690919063ffffffff16565b9050919050565b600080828401905083811015151561040b57600080fd5b8091505092915050565b61041f8282610524565b5050565b5050565b600260009054906101000a900473ffffffffffffffffffffffffffffffffffffffff1673ffffffffffffffffffffffffffffffffffffffff166108fc349081150290604051600060405180830381858888f1935050505015801561048f573d6000803e3d6000fd5b50565b5050565b600073ffffffffffffffffffffffffffffffffffffffff168273ffffffffffffffffffffffffffffffffffffffff16141515156104d257600080fd5b600081141515156104e257600080fd5b5050565b60008060008414156104fb576000915061051d565b828402905082848281151561050c57fe5b0414151561051957600080fd5b8091505b5092915050565b6105718282600160009054906101000a900473ffffffffffffffffffffffffffffffffffffffff1673ffffffffffffffffffffffffffffffffffffffff166105759092919063ffffffff16565b5050565b8273ffffffffffffffffffffffffffffffffffffffff1663a9059cbb83836040518363ffffffff167c0100000000000000000000000000000000000000000000000000000000028152600401808373ffffffffffffffffffffffffffffffffffffffff1673ffffffffffffffffffffffffffffffffffffffff16815260200182815260200192505050602060405180830381600087803b15801561061857600080fd5b505af115801561062c573d6000803e3d6000fd5b505050506040513d602081101561064257600080fd5b8101908080519060200190929190505050151561065e57600080fd5b5050505600a165627a7a723058209959647b75b163f9748a92b99e0feda2d80415dd3d6832657f31d2ae1ce72cb30029",
  "source": "pragma solidity ^0.4.24;\n\nimport \"../token/ERC20/IERC20.sol\";\nimport \"../crowdsale/validation/CappedCrowdsale.sol\";\n\ncontract CappedCrowdsaleImpl is CappedCrowdsale {\n\n  constructor (\n    uint256 rate,\n    address wallet,\n    IERC20 token,\n    uint256 cap\n  )\n    public\n    Crowdsale(rate, wallet, token)\n    CappedCrowdsale(cap)\n  {\n  }\n\n}\n",
  "sourcePath": "/home/jonah/miscCode/SimpleStablecoin/contracts/openzeppelin-solidity/contracts/mocks/CappedCrowdsaleImpl.sol",
  "compiler": {
    "name": "solc",
    "version": "0.4.24+commit.e67f0147.Emscripten.clang"
  },
  "schemaVersion": "2.0.1",
  "updatedAt": "2018-10-24T22:56:24.439Z"
}