{
  "contractName": "CounterImpl",
  "abi": [
    {
      "constant": true,
      "inputs": [],
      "name": "theId",
      "outputs": [
        {
          "name": "",
          "type": "uint256"
        }
      ],
      "payable": false,
      "stateMutability": "view",
      "type": "function"
    },
    {
      "constant": false,
      "inputs": [
        {
          "name": "key",
          "type": "string"
        }
      ],
      "name": "doThing",
      "outputs": [
        {
          "name": "",
          "type": "uint256"
        }
      ],
      "payable": false,
      "stateMutability": "nonpayable",
      "type": "function"
    }
  ],
  "bytecode": "0x608060405234801561001057600080fd5b506101d1806100206000396000f30060806040526004361061004c576000357c0100000000000000000000000000000000000000000000000000000000900463ffffffff1680633b73cc7214610051578063bb5e3d3b1461007c575b600080fd5b34801561005d57600080fd5b506100666100f9565b6040518082815260200191505060405180910390f35b34801561008857600080fd5b506100e3600480360381019080803590602001908201803590602001908080601f01602080910402602001604051908101604052809392919081815260200183838082843782019150505050505091929192905050506100ff565b6040518082815260200191505060405180910390f35b60005481565b60006101746001836040518082805190602001908083835b60208310151561013c5780518252602082019150602081019050602083039250610117565b6001836020036101000a0380198251168184511680821785525050505050509050019150509081526020016040518091039020610184565b6000819055506000549050919050565b600060018260000160008282540192505081905550816000015490509190505600a165627a7a723058200463f0ddf2352351168ee0d8cb4144eb2da2c75c6ef27263e46dfc4d24bd8a8b0029",
  "source": "pragma solidity ^0.4.24;\n\nimport \"../drafts/Counter.sol\";\n\ncontract CounterImpl {\n  using Counter for Counter.Counter;\n\n  uint256 public theId;\n\n  // use whatever key you want to track your counters\n  mapping(string => Counter.Counter) private _counters;\n\n  function doThing(string key)\n    public\n    returns (uint256)\n  {\n    theId = _counters[key].next();\n    return theId;\n  }\n}\n",
  "sourcePath": "/home/jonah/miscCode/SimpleStablecoin/contracts/openzeppelin-solidity/contracts/mocks/CounterImpl.sol",
  "compiler": {
    "name": "solc",
    "version": "0.4.24+commit.e67f0147.Emscripten.clang"
  },
  "schemaVersion": "2.0.1",
  "updatedAt": "2018-10-24T22:56:24.440Z"
}