{
  "contractName": "ERC20FailingMock",
  "abi": [
    {
      "constant": false,
      "inputs": [
        {
          "name": "",
          "type": "address"
        },
        {
          "name": "",
          "type": "uint256"
        }
      ],
      "name": "transfer",
      "outputs": [
        {
          "name": "",
          "type": "bool"
        }
      ],
      "payable": false,
      "stateMutability": "nonpayable",
      "type": "function"
    },
    {
      "constant": false,
      "inputs": [
        {
          "name": "",
          "type": "address"
        },
        {
          "name": "",
          "type": "address"
        },
        {
          "name": "",
          "type": "uint256"
        }
      ],
      "name": "transferFrom",
      "outputs": [
        {
          "name": "",
          "type": "bool"
        }
      ],
      "payable": false,
      "stateMutability": "nonpayable",
      "type": "function"
    },
    {
      "constant": false,
      "inputs": [
        {
          "name": "",
          "type": "address"
        },
        {
          "name": "",
          "type": "uint256"
        }
      ],
      "name": "approve",
      "outputs": [
        {
          "name": "",
          "type": "bool"
        }
      ],
      "payable": false,
      "stateMutability": "nonpayable",
      "type": "function"
    },
    {
      "constant": true,
      "inputs": [
        {
          "name": "",
          "type": "address"
        },
        {
          "name": "",
          "type": "address"
        }
      ],
      "name": "allowance",
      "outputs": [
        {
          "name": "",
          "type": "uint256"
        }
      ],
      "payable": false,
      "stateMutability": "view",
      "type": "function"
    }
  ],
  "bytecode": "0x608060405234801561001057600080fd5b50610286806100206000396000f300608060405260043610610062576000357c0100000000000000000000000000000000000000000000000000000000900463ffffffff168063095ea7b31461006757806323b872dd146100cc578063a9059cbb14610151578063dd62ed3e146101b6575b600080fd5b34801561007357600080fd5b506100b2600480360381019080803573ffffffffffffffffffffffffffffffffffffffff1690602001909291908035906020019092919050505061022d565b604051808215151515815260200191505060405180910390f35b3480156100d857600080fd5b50610137600480360381019080803573ffffffffffffffffffffffffffffffffffffffff169060200190929190803573ffffffffffffffffffffffffffffffffffffffff16906020019092919080359060200190929190505050610238565b604051808215151515815260200191505060405180910390f35b34801561015d57600080fd5b5061019c600480360381019080803573ffffffffffffffffffffffffffffffffffffffff16906020019092919080359060200190929190505050610244565b604051808215151515815260200191505060405180910390f35b3480156101c257600080fd5b50610217600480360381019080803573ffffffffffffffffffffffffffffffffffffffff169060200190929190803573ffffffffffffffffffffffffffffffffffffffff16906020019092919050505061024f565b6040518082815260200191505060405180910390f35b600080905092915050565b60008090509392505050565b600080905092915050565b6000809050929150505600a165627a7a723058204cdcf884fbf6c842ebaa648e3ceba0d926aade5fa92d2a32962930ab98806acc0029",
  "source": "pragma solidity ^0.4.24;\n\nimport \"../token/ERC20/IERC20.sol\";\nimport \"../token/ERC20/SafeERC20.sol\";\n\ncontract ERC20FailingMock {\n  uint256 private _allowance;\n\n  function transfer(address, uint256) public returns (bool) {\n    return false;\n  }\n\n  function transferFrom(address, address, uint256) public returns (bool) {\n    return false;\n  }\n\n  function approve(address, uint256) public returns (bool) {\n    return false;\n  }\n\n  function allowance(address, address) public view returns (uint256) {\n    return 0;\n  }\n}\n\ncontract ERC20SucceedingMock {\n  uint256 private _allowance;\n\n  function transfer(address, uint256) public returns (bool) {\n    return true;\n  }\n\n  function transferFrom(address, address, uint256) public returns (bool) {\n    return true;\n  }\n\n  function approve(address, uint256) public returns (bool) {\n    return true;\n  }\n\n  function setAllowance(uint256 allowance_) public {\n    _allowance = allowance_;\n  }\n\n  function allowance(address, address) public view returns (uint256) {\n    return _allowance;\n  }\n}\n\ncontract SafeERC20Helper {\n  using SafeERC20 for IERC20;\n\n  IERC20 private _failing;\n  IERC20 private _succeeding;\n\n  constructor() public {\n    _failing = IERC20(new ERC20FailingMock());\n    _succeeding = IERC20(new ERC20SucceedingMock());\n  }\n\n  // Using _failing\n\n  function doFailingTransfer() public {\n    _failing.safeTransfer(address(0), 0);\n  }\n\n  function doFailingTransferFrom() public {\n    _failing.safeTransferFrom(address(0), address(0), 0);\n  }\n\n  function doFailingApprove() public {\n    _failing.safeApprove(address(0), 0);\n  }\n\n  function doFailingIncreaseAllowance() public {\n    _failing.safeIncreaseAllowance(address(0), 0);\n  }\n\n  function doFailingDecreaseAllowance() public {\n    _failing.safeDecreaseAllowance(address(0), 0);\n  }\n\n  // Using _succeeding\n\n  function doSucceedingTransfer() public {\n    _succeeding.safeTransfer(address(0), 0);\n  }\n\n  function doSucceedingTransferFrom() public {\n    _succeeding.safeTransferFrom(address(0), address(0), 0);\n  }\n\n  function doSucceedingApprove(uint256 amount) public {\n    _succeeding.safeApprove(address(0), amount);\n  }\n\n  function doSucceedingIncreaseAllowance(uint256 amount) public {\n    _succeeding.safeIncreaseAllowance(address(0), amount);\n  }\n\n  function doSucceedingDecreaseAllowance(uint256 amount) public {\n    _succeeding.safeDecreaseAllowance(address(0), amount);\n  }\n\n  function setAllowance(uint256 allowance_) public {\n    ERC20SucceedingMock(_succeeding).setAllowance(allowance_);\n  }\n\n  function allowance() public view returns (uint256) {\n    return _succeeding.allowance(address(0), address(0));\n  }\n}\n",
  "sourcePath": "/home/jonah/miscCode/SimpleStablecoin/contracts/openzeppelin-solidity/contracts/mocks/SafeERC20Helper.sol",
  "compiler": {
    "name": "solc",
    "version": "0.4.24+commit.e67f0147.Emscripten.clang"
  },
  "schemaVersion": "2.0.1",
  "updatedAt": "2018-10-24T22:56:24.457Z"
}