{
  "contractName": "ERC721MintableBurnableImpl",
  "abi": [
    {
      "constant": true,
      "inputs": [
        {
          "name": "interfaceId",
          "type": "bytes4"
        }
      ],
      "name": "supportsInterface",
      "outputs": [
        {
          "name": "",
          "type": "bool"
        }
      ],
      "payable": false,
      "stateMutability": "view",
      "type": "function"
    },
    {
      "constant": true,
      "inputs": [],
      "name": "name",
      "outputs": [
        {
          "name": "",
          "type": "string"
        }
      ],
      "payable": false,
      "stateMutability": "view",
      "type": "function"
    },
    {
      "constant": true,
      "inputs": [
        {
          "name": "tokenId",
          "type": "uint256"
        }
      ],
      "name": "getApproved",
      "outputs": [
        {
          "name": "",
          "type": "address"
        }
      ],
      "payable": false,
      "stateMutability": "view",
      "type": "function"
    },
    {
      "constant": false,
      "inputs": [
        {
          "name": "to",
          "type": "address"
        },
        {
          "name": "tokenId",
          "type": "uint256"
        }
      ],
      "name": "approve",
      "outputs": [],
      "payable": false,
      "stateMutability": "nonpayable",
      "type": "function"
    },
    {
      "constant": true,
      "inputs": [],
      "name": "totalSupply",
      "outputs": [
        {
          "name": "",
          "type": "uint256"
        }
      ],
      "payable": false,
      "stateMutability": "view",
      "type": "function"
    },
    {
      "constant": false,
      "inputs": [
        {
          "name": "from",
          "type": "address"
        },
        {
          "name": "to",
          "type": "address"
        },
        {
          "name": "tokenId",
          "type": "uint256"
        }
      ],
      "name": "transferFrom",
      "outputs": [],
      "payable": false,
      "stateMutability": "nonpayable",
      "type": "function"
    },
    {
      "constant": true,
      "inputs": [
        {
          "name": "owner",
          "type": "address"
        },
        {
          "name": "index",
          "type": "uint256"
        }
      ],
      "name": "tokenOfOwnerByIndex",
      "outputs": [
        {
          "name": "",
          "type": "uint256"
        }
      ],
      "payable": false,
      "stateMutability": "view",
      "type": "function"
    },
    {
      "constant": false,
      "inputs": [
        {
          "name": "to",
          "type": "address"
        },
        {
          "name": "tokenId",
          "type": "uint256"
        }
      ],
      "name": "mint",
      "outputs": [
        {
          "name": "",
          "type": "bool"
        }
      ],
      "payable": false,
      "stateMutability": "nonpayable",
      "type": "function"
    },
    {
      "constant": false,
      "inputs": [
        {
          "name": "from",
          "type": "address"
        },
        {
          "name": "to",
          "type": "address"
        },
        {
          "name": "tokenId",
          "type": "uint256"
        }
      ],
      "name": "safeTransferFrom",
      "outputs": [],
      "payable": false,
      "stateMutability": "nonpayable",
      "type": "function"
    },
    {
      "constant": false,
      "inputs": [
        {
          "name": "tokenId",
          "type": "uint256"
        }
      ],
      "name": "burn",
      "outputs": [],
      "payable": false,
      "stateMutability": "nonpayable",
      "type": "function"
    },
    {
      "constant": true,
      "inputs": [
        {
          "name": "index",
          "type": "uint256"
        }
      ],
      "name": "tokenByIndex",
      "outputs": [
        {
          "name": "",
          "type": "uint256"
        }
      ],
      "payable": false,
      "stateMutability": "view",
      "type": "function"
    },
    {
      "constant": false,
      "inputs": [
        {
          "name": "to",
          "type": "address"
        },
        {
          "name": "tokenId",
          "type": "uint256"
        },
        {
          "name": "tokenURI",
          "type": "string"
        }
      ],
      "name": "mintWithTokenURI",
      "outputs": [
        {
          "name": "",
          "type": "bool"
        }
      ],
      "payable": false,
      "stateMutability": "nonpayable",
      "type": "function"
    },
    {
      "constant": true,
      "inputs": [
        {
          "name": "tokenId",
          "type": "uint256"
        }
      ],
      "name": "ownerOf",
      "outputs": [
        {
          "name": "",
          "type": "address"
        }
      ],
      "payable": false,
      "stateMutability": "view",
      "type": "function"
    },
    {
      "constant": true,
      "inputs": [
        {
          "name": "owner",
          "type": "address"
        }
      ],
      "name": "balanceOf",
      "outputs": [
        {
          "name": "",
          "type": "uint256"
        }
      ],
      "payable": false,
      "stateMutability": "view",
      "type": "function"
    },
    {
      "constant": true,
      "inputs": [],
      "name": "symbol",
      "outputs": [
        {
          "name": "",
          "type": "string"
        }
      ],
      "payable": false,
      "stateMutability": "view",
      "type": "function"
    },
    {
      "constant": false,
      "inputs": [
        {
          "name": "account",
          "type": "address"
        }
      ],
      "name": "addMinter",
      "outputs": [],
      "payable": false,
      "stateMutability": "nonpayable",
      "type": "function"
    },
    {
      "constant": false,
      "inputs": [],
      "name": "renounceMinter",
      "outputs": [],
      "payable": false,
      "stateMutability": "nonpayable",
      "type": "function"
    },
    {
      "constant": false,
      "inputs": [
        {
          "name": "to",
          "type": "address"
        },
        {
          "name": "approved",
          "type": "bool"
        }
      ],
      "name": "setApprovalForAll",
      "outputs": [],
      "payable": false,
      "stateMutability": "nonpayable",
      "type": "function"
    },
    {
      "constant": true,
      "inputs": [
        {
          "name": "account",
          "type": "address"
        }
      ],
      "name": "isMinter",
      "outputs": [
        {
          "name": "",
          "type": "bool"
        }
      ],
      "payable": false,
      "stateMutability": "view",
      "type": "function"
    },
    {
      "constant": false,
      "inputs": [
        {
          "name": "from",
          "type": "address"
        },
        {
          "name": "to",
          "type": "address"
        },
        {
          "name": "tokenId",
          "type": "uint256"
        },
        {
          "name": "_data",
          "type": "bytes"
        }
      ],
      "name": "safeTransferFrom",
      "outputs": [],
      "payable": false,
      "stateMutability": "nonpayable",
      "type": "function"
    },
    {
      "constant": true,
      "inputs": [
        {
          "name": "tokenId",
          "type": "uint256"
        }
      ],
      "name": "tokenURI",
      "outputs": [
        {
          "name": "",
          "type": "string"
        }
      ],
      "payable": false,
      "stateMutability": "view",
      "type": "function"
    },
    {
      "constant": true,
      "inputs": [
        {
          "name": "owner",
          "type": "address"
        },
        {
          "name": "operator",
          "type": "address"
        }
      ],
      "name": "isApprovedForAll",
      "outputs": [
        {
          "name": "",
          "type": "bool"
        }
      ],
      "payable": false,
      "stateMutability": "view",
      "type": "function"
    },
    {
      "inputs": [],
      "payable": false,
      "stateMutability": "nonpayable",
      "type": "constructor"
    },
    {
      "anonymous": false,
      "inputs": [
        {
          "indexed": true,
          "name": "account",
          "type": "address"
        }
      ],
      "name": "MinterAdded",
      "type": "event"
    },
    {
      "anonymous": false,
      "inputs": [
        {
          "indexed": true,
          "name": "account",
          "type": "address"
        }
      ],
      "name": "MinterRemoved",
      "type": "event"
    },
    {
      "anonymous": false,
      "inputs": [
        {
          "indexed": true,
          "name": "from",
          "type": "address"
        },
        {
          "indexed": true,
          "name": "to",
          "type": "address"
        },
        {
          "indexed": true,
          "name": "tokenId",
          "type": "uint256"
        }
      ],
      "name": "Transfer",
      "type": "event"
    },
    {
      "anonymous": false,
      "inputs": [
        {
          "indexed": true,
          "name": "owner",
          "type": "address"
        },
        {
          "indexed": true,
          "name": "approved",
          "type": "address"
        },
        {
          "indexed": true,
          "name": "tokenId",
          "type": "uint256"
        }
      ],
      "name": "Approval",
      "type": "event"
    },
    {
      "anonymous": false,
      "inputs": [
        {
          "indexed": true,
          "name": "owner",
          "type": "address"
        },
        {
          "indexed": true,
          "name": "operator",
          "type": "address"
        },
        {
          "indexed": false,
          "name": "approved",
          "type": "bool"
        }
      ],
      "name": "ApprovalForAll",
      "type": "event"
    }
  ],
  "bytecode": "0x60806040523480156200001157600080fd5b506040805190810160405280600481526020017f54657374000000000000000000000000000000000000000000000000000000008152506040805190810160405280600481526020017f54455354000000000000000000000000000000000000000000000000000000008152508181620000bd6301ffc9a77c010000000000000000000000000000000000000000000000000000000002620001ca640100000000026401000000009004565b620000fa6380ac58cd7c010000000000000000000000000000000000000000000000000000000002620001ca640100000000026401000000009004565b6200013763780e9d637c010000000000000000000000000000000000000000000000000000000002620001ca640100000000026401000000009004565b81600990805190602001906200014f9291906200044a565b5080600a9080519060200190620001689291906200044a565b50620001a6635b5e139f7c010000000000000000000000000000000000000000000000000000000002620001ca640100000000026401000000009004565b50505050620001c43362000288640100000000026401000000009004565b620004f9565b63ffffffff7c010000000000000000000000000000000000000000000000000000000002817bffffffffffffffffffffffffffffffffffffffffffffffffffffffff1916141515156200021c57600080fd5b6001600080837bffffffffffffffffffffffffffffffffffffffffffffffffffffffff19167bffffffffffffffffffffffffffffffffffffffffffffffffffffffff1916815260200190815260200160002060006101000a81548160ff02191690831515021790555050565b620002ac81600c620002f264010000000002620020a0179091906401000000009004565b8073ffffffffffffffffffffffffffffffffffffffff167f6ae172837ea30b801fbfcdd4108aa1d5bf8ff775444fd70256b44e6bf3dfc3f660405160405180910390a250565b600073ffffffffffffffffffffffffffffffffffffffff168173ffffffffffffffffffffffffffffffffffffffff16141515156200032f57600080fd5b6200034a8282620003b5640100000000026401000000009004565b1515156200035757600080fd5b60018260000160008373ffffffffffffffffffffffffffffffffffffffff1673ffffffffffffffffffffffffffffffffffffffff16815260200190815260200160002060006101000a81548160ff0219169083151502179055505050565b60008073ffffffffffffffffffffffffffffffffffffffff168273ffffffffffffffffffffffffffffffffffffffff1614151515620003f357600080fd5b8260000160008373ffffffffffffffffffffffffffffffffffffffff1673ffffffffffffffffffffffffffffffffffffffff16815260200190815260200160002060009054906101000a900460ff16905092915050565b828054600181600116156101000203166002900490600052602060002090601f016020900481019282601f106200048d57805160ff1916838001178555620004be565b82800160010185558215620004be579182015b82811115620004bd578251825591602001919060010190620004a0565b5b509050620004cd9190620004d1565b5090565b620004f691905b80821115620004f2576000816000905550600101620004d8565b5090565b90565b6123ec80620005096000396000f300608060405260043610610128576000357c0100000000000000000000000000000000000000000000000000000000900463ffffffff16806301ffc9a71461012d57806306fdde0314610191578063081812fc14610221578063095ea7b31461028e57806318160ddd146102db57806323b872dd146103065780632f745c591461037357806340c10f19146103d457806342842e0e1461043957806342966c68146104a65780634f6ccce7146104d357806350bb4e7f146105145780636352211e146105bf57806370a082311461062c57806395d89b4114610683578063983b2d56146107135780639865027514610756578063a22cb4651461076d578063aa271e1a146107bc578063b88d4fde14610817578063c87b56dd146108ca578063e985e9c514610970575b600080fd5b34801561013957600080fd5b5061017760048036038101908080357bffffffffffffffffffffffffffffffffffffffffffffffffffffffff191690602001909291905050506109eb565b604051808215151515815260200191505060405180910390f35b34801561019d57600080fd5b506101a6610a52565b6040518080602001828103825283818151815260200191508051906020019080838360005b838110156101e65780820151818401526020810190506101cb565b50505050905090810190601f1680156102135780820380516001836020036101000a031916815260200191505b509250505060405180910390f35b34801561022d57600080fd5b5061024c60048036038101908080359060200190929190505050610af4565b604051808273ffffffffffffffffffffffffffffffffffffffff1673ffffffffffffffffffffffffffffffffffffffff16815260200191505060405180910390f35b34801561029a57600080fd5b506102d9600480360381019080803573ffffffffffffffffffffffffffffffffffffffff16906020019092919080359060200190929190505050610b45565b005b3480156102e757600080fd5b506102f0610c8a565b6040518082815260200191505060405180910390f35b34801561031257600080fd5b50610371600480360381019080803573ffffffffffffffffffffffffffffffffffffffff169060200190929190803573ffffffffffffffffffffffffffffffffffffffff16906020019092919080359060200190929190505050610c97565b005b34801561037f57600080fd5b506103be600480360381019080803573ffffffffffffffffffffffffffffffffffffffff16906020019092919080359060200190929190505050610d66565b6040518082815260200191505060405180910390f35b3480156103e057600080fd5b5061041f600480360381019080803573ffffffffffffffffffffffffffffffffffffffff16906020019092919080359060200190929190505050610ddd565b604051808215151515815260200191505060405180910390f35b34801561044557600080fd5b506104a4600480360381019080803573ffffffffffffffffffffffffffffffffffffffff169060200190929190803573ffffffffffffffffffffffffffffffffffffffff16906020019092919080359060200190929190505050610e07565b005b3480156104b257600080fd5b506104d160048036038101908080359060200190929190505050610e28565b005b3480156104df57600080fd5b506104fe60048036038101908080359060200190929190505050610e52565b6040518082815260200191505060405180910390f35b34801561052057600080fd5b506105a5600480360381019080803573ffffffffffffffffffffffffffffffffffffffff16906020019092919080359060200190929190803590602001908201803590602001908080601f0160208091040260200160405190810160405280939291908181526020018383808284378201915050505050509192919290505050610e8a565b604051808215151515815260200191505060405180910390f35b3480156105cb57600080fd5b506105ea60048036038101908080359060200190929190505050610ebf565b604051808273ffffffffffffffffffffffffffffffffffffffff1673ffffffffffffffffffffffffffffffffffffffff16815260200191505060405180910390f35b34801561063857600080fd5b5061066d600480360381019080803573ffffffffffffffffffffffffffffffffffffffff169060200190929190505050610f3d565b6040518082815260200191505060405180910390f35b34801561068f57600080fd5b50610698610fc1565b6040518080602001828103825283818151815260200191508051906020019080838360005b838110156106d85780820151818401526020810190506106bd565b50505050905090810190601f1680156107055780820380516001836020036101000a031916815260200191505b509250505060405180910390f35b34801561071f57600080fd5b50610754600480360381019080803573ffffffffffffffffffffffffffffffffffffffff169060200190929190505050611063565b005b34801561076257600080fd5b5061076b611083565b005b34801561077957600080fd5b506107ba600480360381019080803573ffffffffffffffffffffffffffffffffffffffff16906020019092919080351515906020019092919050505061108e565b005b3480156107c857600080fd5b506107fd600480360381019080803573ffffffffffffffffffffffffffffffffffffffff1690602001909291905050506111ca565b604051808215151515815260200191505060405180910390f35b34801561082357600080fd5b506108c8600480360381019080803573ffffffffffffffffffffffffffffffffffffffff169060200190929190803573ffffffffffffffffffffffffffffffffffffffff16906020019092919080359060200190929190803590602001908201803590602001908080601f01602080910402602001604051908101604052809392919081815260200183838082843782019150505050505091929192905050506111e7565b005b3480156108d657600080fd5b506108f56004803603810190808035906020019092919050505061120f565b6040518080602001828103825283818151815260200191508051906020019080838360005b8381101561093557808201518184015260208101905061091a565b50505050905090810190601f1680156109625780820380516001836020036101000a031916815260200191505b509250505060405180910390f35b34801561097c57600080fd5b506109d1600480360381019080803573ffffffffffffffffffffffffffffffffffffffff169060200190929190803573ffffffffffffffffffffffffffffffffffffffff1690602001909291905050506112d8565b604051808215151515815260200191505060405180910390f35b6000806000837bffffffffffffffffffffffffffffffffffffffffffffffffffffffff19167bffffffffffffffffffffffffffffffffffffffffffffffffffffffff1916815260200190815260200160002060009054906101000a900460ff169050919050565b606060098054600181600116156101000203166002900480601f016020809104026020016040519081016040528092919081815260200182805460018160011615610100020316600290048015610aea5780601f10610abf57610100808354040283529160200191610aea565b820191906000526020600020905b815481529060010190602001808311610acd57829003601f168201915b5050505050905090565b6000610aff8261136c565b1515610b0a57600080fd5b6002600083815260200190815260200160002060009054906101000a900473ffffffffffffffffffffffffffffffffffffffff169050919050565b6000610b5082610ebf565b90508073ffffffffffffffffffffffffffffffffffffffff168373ffffffffffffffffffffffffffffffffffffffff1614151515610b8d57600080fd5b8073ffffffffffffffffffffffffffffffffffffffff163373ffffffffffffffffffffffffffffffffffffffff161480610bcd5750610bcc81336112d8565b5b1515610bd857600080fd5b826002600084815260200190815260200160002060006101000a81548173ffffffffffffffffffffffffffffffffffffffff021916908373ffffffffffffffffffffffffffffffffffffffff160217905550818373ffffffffffffffffffffffffffffffffffffffff168273ffffffffffffffffffffffffffffffffffffffff167f8c5be1e5ebec7d5bd14f71427d1e84f3dd0314c0f7b2291e5b200ac8c7c3b92560405160405180910390a4505050565b6000600780549050905090565b610ca133826113de565b1515610cac57600080fd5b600073ffffffffffffffffffffffffffffffffffffffff168273ffffffffffffffffffffffffffffffffffffffff1614151515610ce857600080fd5b610cf28382611473565b610cfc8382611576565b610d068282611732565b808273ffffffffffffffffffffffffffffffffffffffff168473ffffffffffffffffffffffffffffffffffffffff167fddf252ad1be2c89b69c2b068fc378daa952ba7f163c4a11628f55a4df523b3ef60405160405180910390a4505050565b6000610d7183610f3d565b82101515610d7e57600080fd5b600560008473ffffffffffffffffffffffffffffffffffffffff1673ffffffffffffffffffffffffffffffffffffffff16815260200190815260200160002082815481101515610dca57fe5b9060005260206000200154905092915050565b6000610de8336111ca565b1515610df357600080fd5b610dfd8383611809565b6001905092915050565b610e2383838360206040519081016040528060008152506111e7565b505050565b610e3233826113de565b1515610e3d57600080fd5b610e4f610e4982610ebf565b82611860565b50565b6000610e5c610c8a565b82101515610e6957600080fd5b600782815481101515610e7857fe5b90600052602060002001549050919050565b6000610e95336111ca565b1515610ea057600080fd5b610eaa8484611809565b610eb483836118bf565b600190509392505050565b6000806001600084815260200190815260200160002060009054906101000a900473ffffffffffffffffffffffffffffffffffffffff169050600073ffffffffffffffffffffffffffffffffffffffff168173ffffffffffffffffffffffffffffffffffffffff1614151515610f3457600080fd5b80915050919050565b60008073ffffffffffffffffffffffffffffffffffffffff168273ffffffffffffffffffffffffffffffffffffffff1614151515610f7a57600080fd5b600360008373ffffffffffffffffffffffffffffffffffffffff1673ffffffffffffffffffffffffffffffffffffffff168152602001908152602001600020549050919050565b6060600a8054600181600116156101000203166002900480601f0160208091040260200160405190810160405280929190818152602001828054600181600116156101000203166002900480156110595780601f1061102e57610100808354040283529160200191611059565b820191906000526020600020905b81548152906001019060200180831161103c57829003601f168201915b5050505050905090565b61106c336111ca565b151561107757600080fd5b611080816118ff565b50565b61108c33611959565b565b3373ffffffffffffffffffffffffffffffffffffffff168273ffffffffffffffffffffffffffffffffffffffff16141515156110c957600080fd5b80600460003373ffffffffffffffffffffffffffffffffffffffff1673ffffffffffffffffffffffffffffffffffffffff16815260200190815260200160002060008473ffffffffffffffffffffffffffffffffffffffff1673ffffffffffffffffffffffffffffffffffffffff16815260200190815260200160002060006101000a81548160ff0219169083151502179055508173ffffffffffffffffffffffffffffffffffffffff163373ffffffffffffffffffffffffffffffffffffffff167f17307eab39ab6107e8899845ad3d59bd9653f200f220920489ca2b5937696c3183604051808215151515815260200191505060405180910390a35050565b60006111e082600c6119b390919063ffffffff16565b9050919050565b6111f2848484610c97565b6111fe84848484611a47565b151561120957600080fd5b50505050565b606061121a8261136c565b151561122557600080fd5b600b60008381526020019081526020016000208054600181600116156101000203166002900480601f0160208091040260200160405190810160405280929190818152602001828054600181600116156101000203166002900480156112cc5780601f106112a1576101008083540402835291602001916112cc565b820191906000526020600020905b8154815290600101906020018083116112af57829003601f168201915b50505050509050919050565b6000600460008473ffffffffffffffffffffffffffffffffffffffff1673ffffffffffffffffffffffffffffffffffffffff16815260200190815260200160002060008373ffffffffffffffffffffffffffffffffffffffff1673ffffffffffffffffffffffffffffffffffffffff16815260200190815260200160002060009054906101000a900460ff16905092915050565b6000806001600084815260200190815260200160002060009054906101000a900473ffffffffffffffffffffffffffffffffffffffff169050600073ffffffffffffffffffffffffffffffffffffffff168173ffffffffffffffffffffffffffffffffffffffff161415915050919050565b6000806113ea83610ebf565b90508073ffffffffffffffffffffffffffffffffffffffff168473ffffffffffffffffffffffffffffffffffffffff16148061145957508373ffffffffffffffffffffffffffffffffffffffff1661144184610af4565b73ffffffffffffffffffffffffffffffffffffffff16145b8061146a575061146981856112d8565b5b91505092915050565b8173ffffffffffffffffffffffffffffffffffffffff1661149382610ebf565b73ffffffffffffffffffffffffffffffffffffffff161415156114b557600080fd5b600073ffffffffffffffffffffffffffffffffffffffff166002600083815260200190815260200160002060009054906101000a900473ffffffffffffffffffffffffffffffffffffffff1673ffffffffffffffffffffffffffffffffffffffff161415156115725760006002600083815260200190815260200160002060006101000a81548173ffffffffffffffffffffffffffffffffffffffff021916908373ffffffffffffffffffffffffffffffffffffffff1602179055505b5050565b60008060006115858585611c69565b600660008581526020019081526020016000205492506115f16001600560008873ffffffffffffffffffffffffffffffffffffffff1673ffffffffffffffffffffffffffffffffffffffff16815260200190815260200160002080549050611d9890919063ffffffff16565b9150600560008673ffffffffffffffffffffffffffffffffffffffff1673ffffffffffffffffffffffffffffffffffffffff1681526020019081526020016000208281548110151561163f57fe5b9060005260206000200154905080600560008773ffffffffffffffffffffffffffffffffffffffff1673ffffffffffffffffffffffffffffffffffffffff1681526020019081526020016000208481548110151561169957fe5b9060005260206000200181905550600560008673ffffffffffffffffffffffffffffffffffffffff1673ffffffffffffffffffffffffffffffffffffffff1681526020019081526020016000208054809190600190036116f991906122a7565b50600060066000868152602001908152602001600020819055508260066000838152602001908152602001600020819055505050505050565b600061173e8383611db9565b600560008473ffffffffffffffffffffffffffffffffffffffff1673ffffffffffffffffffffffffffffffffffffffff168152602001908152602001600020805490509050600560008473ffffffffffffffffffffffffffffffffffffffff1673ffffffffffffffffffffffffffffffffffffffff168152602001908152602001600020829080600181540180825580915050906001820390600052602060002001600090919290919091505550806006600084815260200190815260200160002081905550505050565b6118138282611f13565b600780549050600860008381526020019081526020016000208190555060078190806001815401808255809150509060018203906000526020600020016000909192909190915055505050565b61186a8282611fb9565b6000600b60008381526020019081526020016000208054600181600116156101000203166002900490501415156118bb57600b600082815260200190815260200160002060006118ba91906122d3565b5b5050565b6118c88261136c565b15156118d357600080fd5b80600b600084815260200190815260200160002090805190602001906118fa92919061231b565b505050565b61191381600c6120a090919063ffffffff16565b8073ffffffffffffffffffffffffffffffffffffffff167f6ae172837ea30b801fbfcdd4108aa1d5bf8ff775444fd70256b44e6bf3dfc3f660405160405180910390a250565b61196d81600c61215090919063ffffffff16565b8073ffffffffffffffffffffffffffffffffffffffff167fe94479a9f7e1952cc78f2d6baab678adc1b772d936c6583def489e524cb6669260405160405180910390a250565b60008073ffffffffffffffffffffffffffffffffffffffff168273ffffffffffffffffffffffffffffffffffffffff16141515156119f057600080fd5b8260000160008373ffffffffffffffffffffffffffffffffffffffff1673ffffffffffffffffffffffffffffffffffffffff16815260200190815260200160002060009054906101000a900460ff16905092915050565b600080611a698573ffffffffffffffffffffffffffffffffffffffff166121ff565b1515611a785760019150611c60565b8473ffffffffffffffffffffffffffffffffffffffff1663150b7a02338887876040518563ffffffff167c0100000000000000000000000000000000000000000000000000000000028152600401808573ffffffffffffffffffffffffffffffffffffffff1673ffffffffffffffffffffffffffffffffffffffff1681526020018473ffffffffffffffffffffffffffffffffffffffff1673ffffffffffffffffffffffffffffffffffffffff16815260200183815260200180602001828103825283818151815260200191508051906020019080838360005b83811015611b6d578082015181840152602081019050611b52565b50505050905090810190601f168015611b9a5780820380516001836020036101000a031916815260200191505b5095505050505050602060405180830381600087803b158015611bbc57600080fd5b505af1158015611bd0573d6000803e3d6000fd5b505050506040513d6020811015611be657600080fd5b8101908080519060200190929190505050905063150b7a027c0100000000000000000000000000000000000000000000000000000000027bffffffffffffffffffffffffffffffffffffffffffffffffffffffff1916817bffffffffffffffffffffffffffffffffffffffffffffffffffffffff19161491505b50949350505050565b8173ffffffffffffffffffffffffffffffffffffffff16611c8982610ebf565b73ffffffffffffffffffffffffffffffffffffffff16141515611cab57600080fd5b611cfe6001600360008573ffffffffffffffffffffffffffffffffffffffff1673ffffffffffffffffffffffffffffffffffffffff16815260200190815260200160002054611d9890919063ffffffff16565b600360008473ffffffffffffffffffffffffffffffffffffffff1673ffffffffffffffffffffffffffffffffffffffff1681526020019081526020016000208190555060006001600083815260200190815260200160002060006101000a81548173ffffffffffffffffffffffffffffffffffffffff021916908373ffffffffffffffffffffffffffffffffffffffff1602179055505050565b600080838311151515611daa57600080fd5b82840390508091505092915050565b600073ffffffffffffffffffffffffffffffffffffffff166001600083815260200190815260200160002060009054906101000a900473ffffffffffffffffffffffffffffffffffffffff1673ffffffffffffffffffffffffffffffffffffffff16141515611e2757600080fd5b816001600083815260200190815260200160002060006101000a81548173ffffffffffffffffffffffffffffffffffffffff021916908373ffffffffffffffffffffffffffffffffffffffff160217905550611ecc6001600360008573ffffffffffffffffffffffffffffffffffffffff1673ffffffffffffffffffffffffffffffffffffffff1681526020019081526020016000205461221290919063ffffffff16565b600360008473ffffffffffffffffffffffffffffffffffffffff1673ffffffffffffffffffffffffffffffffffffffff168152602001908152602001600020819055505050565b600073ffffffffffffffffffffffffffffffffffffffff168273ffffffffffffffffffffffffffffffffffffffff1614151515611f4f57600080fd5b611f598282611732565b808273ffffffffffffffffffffffffffffffffffffffff16600073ffffffffffffffffffffffffffffffffffffffff167fddf252ad1be2c89b69c2b068fc378daa952ba7f163c4a11628f55a4df523b3ef60405160405180910390a45050565b6000806000611fc88585612233565b60086000858152602001908152602001600020549250611ff76001600780549050611d9890919063ffffffff16565b915060078281548110151561200857fe5b906000526020600020015490508060078481548110151561202557fe5b9060005260206000200181905550600060078381548110151561204457fe5b9060005260206000200181905550600780548091906001900361206791906122a7565b50600060086000868152602001908152602001600020819055508260086000838152602001908152602001600020819055505050505050565b600073ffffffffffffffffffffffffffffffffffffffff168173ffffffffffffffffffffffffffffffffffffffff16141515156120dc57600080fd5b6120e682826119b3565b1515156120f257600080fd5b60018260000160008373ffffffffffffffffffffffffffffffffffffffff1673ffffffffffffffffffffffffffffffffffffffff16815260200190815260200160002060006101000a81548160ff0219169083151502179055505050565b600073ffffffffffffffffffffffffffffffffffffffff168173ffffffffffffffffffffffffffffffffffffffff161415151561218c57600080fd5b61219682826119b3565b15156121a157600080fd5b60008260000160008373ffffffffffffffffffffffffffffffffffffffff1673ffffffffffffffffffffffffffffffffffffffff16815260200190815260200160002060006101000a81548160ff0219169083151502179055505050565b600080823b905060008111915050919050565b600080828401905083811015151561222957600080fd5b8091505092915050565b61223d8282611473565b6122478282611576565b80600073ffffffffffffffffffffffffffffffffffffffff168373ffffffffffffffffffffffffffffffffffffffff167fddf252ad1be2c89b69c2b068fc378daa952ba7f163c4a11628f55a4df523b3ef60405160405180910390a45050565b8154818355818111156122ce578183600052602060002091820191016122cd919061239b565b5b505050565b50805460018160011615610100020316600290046000825580601f106122f95750612318565b601f016020900490600052602060002090810190612317919061239b565b5b50565b828054600181600116156101000203166002900490600052602060002090601f016020900481019282601f1061235c57805160ff191683800117855561238a565b8280016001018555821561238a579182015b8281111561238957825182559160200191906001019061236e565b5b509050612397919061239b565b5090565b6123bd91905b808211156123b95760008160009055506001016123a1565b5090565b905600a165627a7a72305820c52a5198cc6fe24cf372f3570d840ff9ae10cbc2dad1577635f4d1c29ea0413d0029",
  "source": "pragma solidity ^0.4.24;\n\nimport \"../token/ERC721/ERC721Full.sol\";\nimport \"../token/ERC721/ERC721Mintable.sol\";\nimport \"../token/ERC721/ERC721MetadataMintable.sol\";\nimport \"../token/ERC721/ERC721Burnable.sol\";\n\n/**\n * @title ERC721MintableBurnableImpl\n */\ncontract ERC721MintableBurnableImpl\n  is ERC721Full, ERC721Mintable, ERC721MetadataMintable, ERC721Burnable {\n\n  constructor()\n    ERC721Mintable()\n    ERC721Full(\"Test\", \"TEST\")\n    public\n  {\n  }\n}\n",
  "sourcePath": "/home/jonah/miscCode/SimpleStablecoin/contracts/openzeppelin-solidity/contracts/mocks/ERC721MintableBurnableImpl.sol",
  "compiler": {
    "name": "solc",
    "version": "0.4.24+commit.e67f0147.Emscripten.clang"
  },
  "schemaVersion": "2.0.1",
  "updatedAt": "2018-10-24T22:56:24.443Z"
}