{
  "contractName": "EventEmitter",
  "abi": [
    {
      "anonymous": false,
      "inputs": [],
      "name": "Argumentless",
      "type": "event"
    },
    {
      "anonymous": false,
      "inputs": [
        {
          "indexed": false,
          "name": "value",
          "type": "uint8"
        }
      ],
      "name": "ShortUint",
      "type": "event"
    },
    {
      "anonymous": false,
      "inputs": [
        {
          "indexed": false,
          "name": "value",
          "type": "int8"
        }
      ],
      "name": "ShortInt",
      "type": "event"
    },
    {
      "anonymous": false,
      "inputs": [
        {
          "indexed": false,
          "name": "value",
          "type": "uint256"
        }
      ],
      "name": "LongUint",
      "type": "event"
    },
    {
      "anonymous": false,
      "inputs": [
        {
          "indexed": false,
          "name": "value",
          "type": "int256"
        }
      ],
      "name": "LongInt",
      "type": "event"
    },
    {
      "anonymous": false,
      "inputs": [
        {
          "indexed": false,
          "name": "value",
          "type": "address"
        }
      ],
      "name": "Address",
      "type": "event"
    },
    {
      "anonymous": false,
      "inputs": [
        {
          "indexed": false,
          "name": "value",
          "type": "bool"
        }
      ],
      "name": "Boolean",
      "type": "event"
    },
    {
      "anonymous": false,
      "inputs": [
        {
          "indexed": false,
          "name": "value",
          "type": "string"
        }
      ],
      "name": "String",
      "type": "event"
    },
    {
      "anonymous": false,
      "inputs": [
        {
          "indexed": false,
          "name": "uintValue",
          "type": "uint256"
        },
        {
          "indexed": false,
          "name": "booleanValue",
          "type": "bool"
        },
        {
          "indexed": false,
          "name": "stringValue",
          "type": "string"
        }
      ],
      "name": "LongUintBooleanString",
      "type": "event"
    },
    {
      "constant": false,
      "inputs": [],
      "name": "emitArgumentless",
      "outputs": [],
      "payable": false,
      "stateMutability": "nonpayable",
      "type": "function"
    },
    {
      "constant": false,
      "inputs": [
        {
          "name": "value",
          "type": "uint8"
        }
      ],
      "name": "emitShortUint",
      "outputs": [],
      "payable": false,
      "stateMutability": "nonpayable",
      "type": "function"
    },
    {
      "constant": false,
      "inputs": [
        {
          "name": "value",
          "type": "int8"
        }
      ],
      "name": "emitShortInt",
      "outputs": [],
      "payable": false,
      "stateMutability": "nonpayable",
      "type": "function"
    },
    {
      "constant": false,
      "inputs": [
        {
          "name": "value",
          "type": "uint256"
        }
      ],
      "name": "emitLongUint",
      "outputs": [],
      "payable": false,
      "stateMutability": "nonpayable",
      "type": "function"
    },
    {
      "constant": false,
      "inputs": [
        {
          "name": "value",
          "type": "int256"
        }
      ],
      "name": "emitLongInt",
      "outputs": [],
      "payable": false,
      "stateMutability": "nonpayable",
      "type": "function"
    },
    {
      "constant": false,
      "inputs": [
        {
          "name": "value",
          "type": "address"
        }
      ],
      "name": "emitAddress",
      "outputs": [],
      "payable": false,
      "stateMutability": "nonpayable",
      "type": "function"
    },
    {
      "constant": false,
      "inputs": [
        {
          "name": "value",
          "type": "bool"
        }
      ],
      "name": "emitBoolean",
      "outputs": [],
      "payable": false,
      "stateMutability": "nonpayable",
      "type": "function"
    },
    {
      "constant": false,
      "inputs": [
        {
          "name": "value",
          "type": "string"
        }
      ],
      "name": "emitString",
      "outputs": [],
      "payable": false,
      "stateMutability": "nonpayable",
      "type": "function"
    },
    {
      "constant": false,
      "inputs": [
        {
          "name": "uintValue",
          "type": "uint256"
        },
        {
          "name": "booleanValue",
          "type": "bool"
        },
        {
          "name": "stringValue",
          "type": "string"
        }
      ],
      "name": "emitLongUintBooleanString",
      "outputs": [],
      "payable": false,
      "stateMutability": "nonpayable",
      "type": "function"
    },
    {
      "constant": false,
      "inputs": [
        {
          "name": "uintValue",
          "type": "uint256"
        },
        {
          "name": "boolValue",
          "type": "bool"
        }
      ],
      "name": "emitLongUintAndBoolean",
      "outputs": [],
      "payable": false,
      "stateMutability": "nonpayable",
      "type": "function"
    }
  ],
  "bytecode": "0x608060405234801561001057600080fd5b506106c9806100206000396000f3006080604052600436106100a4576000357c0100000000000000000000000000000000000000000000000000000000900463ffffffff16806314e90a10146100a95780631ce8a349146100c05780632536f127146100ed5780634699764f146101565780635b12b18d1461018657806397257674146101b3578063c3cccbda14610232578063d39868431461026b578063ec5c3ede1461029a578063fd2fa64b146102dd575b600080fd5b3480156100b557600080fd5b506100be61030d565b005b3480156100cc57600080fd5b506100eb6004803603810190808035906020019092919050505061033b565b005b3480156100f957600080fd5b50610154600480360381019080803590602001908201803590602001908080601f0160208091040260200160405190810160405280939291908181526020018383808284378201915050505050509192919290505050610375565b005b34801561016257600080fd5b50610184600480360381019080803560000b9060200190929190505050610414565b005b34801561019257600080fd5b506101b160048036038101908080359060200190929190505050610454565b005b3480156101bf57600080fd5b5061023060048036038101908080359060200190929190803515159060200190929190803590602001908201803590602001908080601f016020809104026020016040519081016040528093929190818152602001838380828437820191505050505050919291929050505061048e565b005b34801561023e57600080fd5b5061026960048036038101908080359060200190929190803515159060200190929190505050610543565b005b34801561027757600080fd5b506102986004803603810190808035151590602001909291905050506105b9565b005b3480156102a657600080fd5b506102db600480360381019080803573ffffffffffffffffffffffffffffffffffffffff1690602001909291905050506105f7565b005b3480156102e957600080fd5b5061030b600480360381019080803560ff16906020019092919050505061065d565b005b7fbe067714c11211adaac353c472c6022ce9927bc5190b38283b83c29d82cfeac860405160405180910390a1565b7fa84b4a529c360270e8511a17443da20c15be835343f9358f548b64cf722dbc90816040518082815260200191505060405180910390a150565b7f589e6a98e08368f5d141bacf55d749854ec881c912e12422b4bb4edee2851a2e816040518080602001828103825283818151815260200191508051906020019080838360005b838110156103d75780820151818401526020810190506103bc565b50505050905090810190601f1680156104045780820380516001836020036101000a031916815260200191505b509250505060405180910390a150565b7f6dfd09553edfd4a7760ca7fe1965b13913f18ff03029ff89f97f8c111ad8f9fc81604051808260000b60000b815260200191505060405180910390a150565b7fe5457628747787b496f254674feec51edaeff98055778f739971d3b4002af8d2816040518082815260200191505060405180910390a150565b7f594c091fded0306cf1bf72ebf396116d5ab9ce736177f19bcebd74b1a15dcee9838383604051808481526020018315151515815260200180602001828103825283818151815260200191508051906020019080838360005b838110156105025780820151818401526020810190506104e7565b50505050905090810190601f16801561052f5780820380516001836020036101000a031916815260200191505b5094505050505060405180910390a1505050565b7fa84b4a529c360270e8511a17443da20c15be835343f9358f548b64cf722dbc90826040518082815260200191505060405180910390a17f5f1a7d146ac3559fb06af8d44e7c16d6e709e4414b75308362587cbdb2ed161181604051808215151515815260200191505060405180910390a15050565b7f5f1a7d146ac3559fb06af8d44e7c16d6e709e4414b75308362587cbdb2ed161181604051808215151515815260200191505060405180910390a150565b7febfb412ded3f9cdb15b75308503b279416e74d382f6ce86eedee0ef3130fa9e381604051808273ffffffffffffffffffffffffffffffffffffffff1673ffffffffffffffffffffffffffffffffffffffff16815260200191505060405180910390a150565b7fa6fd495d53216ab7af47447be18c30075b4b9e8fd2c84b6a16c5edd3ee387c6a81604051808260ff1660ff16815260200191505060405180910390a1505600a165627a7a72305820e0d09812fc77dc9bffae841c1909999674040f9613652a2b7c23d435e7f8f38d0029",
  "source": "pragma solidity ^0.4.24;\n\ncontract EventEmitter {\n  event Argumentless();\n  event ShortUint(uint8 value);\n  event ShortInt(int8 value);\n  event LongUint(uint256 value);\n  event LongInt(int256 value);\n  event Address(address value);\n  event Boolean(bool value);\n  event String(string value);\n  event LongUintBooleanString(\n    uint256 uintValue,\n    bool booleanValue,\n    string stringValue\n  );\n\n  function emitArgumentless() public {\n    emit Argumentless();\n  }\n\n  function emitShortUint(uint8 value) public {\n    emit ShortUint(value);\n  }\n\n  function emitShortInt(int8 value) public {\n    emit ShortInt(value);\n  }\n\n  function emitLongUint(uint256 value) public {\n    emit LongUint(value);\n  }\n\n  function emitLongInt(int256 value) public {\n    emit LongInt(value);\n  }\n\n  function emitAddress(address value) public {\n    emit Address(value);\n  }\n\n  function emitBoolean(bool value) public {\n    emit Boolean(value);\n  }\n\n  function emitString(string value) public {\n    emit String(value);\n  }\n\n  function emitLongUintBooleanString(\n    uint256 uintValue,\n    bool booleanValue,\n    string stringValue)\n  public {\n    emit LongUintBooleanString(uintValue, booleanValue, stringValue);\n  }\n\n  function emitLongUintAndBoolean(uint256 uintValue, bool boolValue) public {\n    emit LongUint(uintValue);\n    emit Boolean(boolValue);\n  }\n}\n",
  "sourcePath": "/home/jonah/miscCode/SimpleStablecoin/contracts/openzeppelin-solidity/contracts/mocks/EventEmitter.sol",
  "compiler": {
    "name": "solc",
    "version": "0.4.24+commit.e67f0147.Emscripten.clang"
  },
  "schemaVersion": "2.0.1",
  "updatedAt": "2018-10-24T22:56:24.444Z"
}